{
  "contractName": "RealEstate",
  "abi": [
    {
      "constant": true,
      "inputs": [],
      "name": "owner",
      "outputs": [
        {
          "name": "",
          "type": "address"
        }
      ],
      "payable": false,
      "stateMutability": "view",
      "type": "function"
    },
    {
      "constant": true,
      "inputs": [
        {
          "name": "",
          "type": "uint256"
        }
      ],
      "name": "buyerInfo",
      "outputs": [
        {
          "name": "buyerAddress",
          "type": "address"
        },
        {
          "name": "name",
          "type": "string"
        },
        {
          "name": "age",
          "type": "uint256"
        }
      ],
      "payable": false,
      "stateMutability": "view",
      "type": "function"
    },
    {
      "constant": true,
      "inputs": [
        {
          "name": "",
          "type": "uint256"
        }
      ],
      "name": "buyers",
      "outputs": [
        {
          "name": "",
          "type": "address"
        }
      ],
      "payable": false,
      "stateMutability": "view",
      "type": "function"
    },
    {
      "inputs": [],
      "payable": false,
      "stateMutability": "nonpayable",
      "type": "constructor"
    },
    {
      "anonymous": false,
      "inputs": [
        {
          "indexed": false,
          "name": "_buyer",
          "type": "address"
        },
        {
          "indexed": false,
          "name": "_id",
          "type": "uint256"
        }
      ],
      "name": "LogBuyRealEstate",
      "type": "event"
    },
    {
      "constant": false,
      "inputs": [
        {
          "name": "_id",
          "type": "uint256"
        },
        {
          "name": "_name",
          "type": "string"
        },
        {
          "name": "_age",
          "type": "uint256"
        }
      ],
      "name": "buyRealEstate",
      "outputs": [],
      "payable": true,
      "stateMutability": "payable",
      "type": "function"
    }
  ],
  "bytecode": "0x608060405234801561001057600080fd5b5033600160006101000a81548173ffffffffffffffffffffffffffffffffffffffff021916908373ffffffffffffffffffffffffffffffffffffffff16021790555061073d806100616000396000f3fe60806040526004361061003f5760003560e01c80638da5cb5b14610044578063a9c1ab9e1461009b578063e377e9661461016a578063f2aa821814610258575b600080fd5b34801561005057600080fd5b506100596102d3565b604051808273ffffffffffffffffffffffffffffffffffffffff1673ffffffffffffffffffffffffffffffffffffffff16815260200191505060405180910390f35b610168600480360360608110156100b157600080fd5b8101908080359060200190929190803590602001906401000000008111156100d857600080fd5b8201836020820111156100ea57600080fd5b8035906020019184600183028401116401000000008311171561010c57600080fd5b91908080601f016020809104026020016040519081016040528093929190818152602001838380828437600081840152601f19601f820116905080830192505050505050509192919290803590602001909291905050506102f9565b005b34801561017657600080fd5b506101a36004803603602081101561018d57600080fd5b8101908080359060200190929190505050610557565b604051808473ffffffffffffffffffffffffffffffffffffffff1673ffffffffffffffffffffffffffffffffffffffff16815260200180602001838152602001828103825284818151815260200191508051906020019080838360005b8381101561021b578082015181840152602081019050610200565b50505050905090810190601f1680156102485780820380516001836020036101000a031916815260200191505b5094505050505060405180910390f35b34801561026457600080fd5b506102916004803603602081101561027b57600080fd5b8101908080359060200190929190505050610639565b604051808273ffffffffffffffffffffffffffffffffffffffff1673ffffffffffffffffffffffffffffffffffffffff16815260200191505060405180910390f35b600160009054906101000a900473ffffffffffffffffffffffffffffffffffffffff1681565b6000831015801561030b575060098311155b61037d576040517f08c379a000000000000000000000000000000000000000000000000000000000815260040180806020018281038252600c8152602001807febb294ec9c84206572726f72000000000000000000000000000000000000000081525060200191505060405180910390fd5b33600284600a811061038b57fe5b0160006101000a81548173ffffffffffffffffffffffffffffffffffffffff021916908373ffffffffffffffffffffffffffffffffffffffff16021790555060405180606001604052803373ffffffffffffffffffffffffffffffffffffffff1681526020018381526020018281525060008085815260200190815260200160002060008201518160000160006101000a81548173ffffffffffffffffffffffffffffffffffffffff021916908373ffffffffffffffffffffffffffffffffffffffff160217905550602082015181600101908051906020019061047092919061066c565b5060408201518160020155905050600160009054906101000a900473ffffffffffffffffffffffffffffffffffffffff1673ffffffffffffffffffffffffffffffffffffffff166108fc349081150290604051600060405180830381858888f193505050501580156104e6573d6000803e3d6000fd5b507f0868a2b77ef5243ab424f87952a349bc823a92fd01d9b45d2fec78b8eafb586b3384604051808373ffffffffffffffffffffffffffffffffffffffff1673ffffffffffffffffffffffffffffffffffffffff1681526020018281526020019250505060405180910390a1505050565b60006020528060005260406000206000915090508060000160009054906101000a900473ffffffffffffffffffffffffffffffffffffffff1690806001018054600181600116156101000203166002900480601f0160208091040260200160405190810160405280929190818152602001828054600181600116156101000203166002900480156106295780601f106105fe57610100808354040283529160200191610629565b820191906000526020600020905b81548152906001019060200180831161060c57829003601f168201915b5050505050908060020154905083565b600281600a811061064657fe5b016000915054906101000a900473ffffffffffffffffffffffffffffffffffffffff1681565b828054600181600116156101000203166002900490600052602060002090601f016020900481019282601f106106ad57805160ff19168380011785556106db565b828001600101855582156106db579182015b828111156106da5782518255916020019190600101906106bf565b5b5090506106e891906106ec565b5090565b61070e91905b8082111561070a5760008160009055506001016106f2565b5090565b9056fea165627a7a72305820527ed603f77cf9bda3cf112d639a6f5a572a48d54a91f178aba1f47416eb0be00029",
  "source": "pragma solidity >=0.4.21 <0.6.0;\r\n\r\ncontract RealEstate {\r\n    struct Buyer {\r\n        address buyerAddress;\r\n        string name;\r\n        uint age;\r\n    }\r\n    mapping (uint => Buyer) public buyerInfo;\r\n    address public owner;\r\n    address[10] public buyers;\r\n\r\n    event LogBuyRealEstate(\r\n        address _buyer,\r\n        uint _id\r\n    );\r\n\r\n    constructor() public {\r\n        owner = msg.sender;\r\n    }\r\n\r\n    function buyRealEstate(uint _id, string memory _name, uint _age) public payable {\r\n        require(_id >= 0 && _id <= 9, \"범위 error\");\r\n        buyers[_id] = msg.sender;\r\n        buyerInfo[_id] = Buyer(msg.sender, _name, _age);\r\n\r\n        address(uint160(owner)).transfer(msg.value);\r\n        emit LogBuyRealEstate(msg.sender, _id);\r\n    }\r\n}\r\n",
  "sourcePath": "/Users/macbookpro/Blockchain/real-estate/contracts/RealEstate.sol",
  "compiler": {
    "name": "solc",
    "version": "0.5.8+commit.23d335f2.Emscripten.clang"
  },
  "schemaVersion": "3.0.16",
  "updatedAt": "2019-10-07T10:11:04.664Z",
  "devdoc": {
    "methods": {}
  },
  "userdoc": {
    "methods": {}
  }
}